:020000040800F2
:100000009807002089010008792600085921000876
:10001000252500089902000875320008000000003C
:100020000000000000000000000000003127000870
:100030009D02000800000000E9260008652800086D
:10004000A3010008A3010008A3010008A301000800
:10005000A3010008A3010008A3010008A3010008F0
:10006000A3010008A3010008A3010008A3010008E0
:10007000A3010008A3010008A3010008A3010008D0
:10008000A3010008A3010008A3010008A3010008C0
:10009000A3010008A3010008A3010008A3010008B0
:1000A000A3010008A3010008A3010008A3010008A0
:1000B000A3010008A3010008A3010008A301000890
:1000C000A3010008A3010008A3010008A301000880
:1000D000A301000865320008A3010008A30100087D
:1000E000A3010008A3010008A301000800F002F822
:1000F00000F03AF80AA090E8000C82448344AAF188
:100100000107DA4501D100F02FF8AFF2090EBAE885
:100110000F0013F0010F18BFFB1A43F0010318473B
:100120007037000090370000103A24BF78C878C1BB
:10013000FAD8520724BF30C830C144BF04680C60ED
:10014000704700000023002400250026103A28BF35
:1001500078C1FBD8520728BF30C148BF0B60704739
:100160001FB51FBD10B510BD00F05CF81146FFF7BC
:10017000F7FF03F0E1F800F07AF803B4FFF7F2FFBD
:1001800003BC00F081F80000094880470948004797
:10019000FEE7FEE7FEE7FEE7FEE7FEE7FEE7FEE737
:1001A000FEE7FEE704480549054A064B7047000094
:1001B000D9280008ED0000089801002098070020C9
:1001C0009803002098030020002800DA404270477E
:1001D0004FF0000200B5134694469646203922BFE0
:1001E000A0E80C50A0E80C50B1F12001BFF4F7AF2B
:1001F000090728BFA0E80C5048BF0CC05DF804EB0D
:10020000890028BF40F8042B08BF704748BF20F87A
:10021000022B11F0804F18BF00F8012B7047704778
:1002200070477047754600F02BF8AE4605006946EA
:10023000534620F00700854618B020B5FFF7B2FFFF
:10024000BDE820404FF000064FF000074FF00008D7
:100250004FF0000BAC46ACE8C009ACE8C009ACE814
:10026000C009ACE8C00921F007018D46704710B500
:100270000446AFF300802046BDE81040FFF77DBF85
:10028000004870471800002001491820ABBEFEE767
:100290002600020070470000FFE7FEE770470000FD
:1002A00081B0EFF3108072B60090FFE7FEE7000028
:1002B00083B0019000208DF80300019890F8210090
:1002C00002280DD0FFE7019904208863FFE7019918
:1002D000002081F82000FFE701208DF80B0021E0CD
:1002E00001980168086820F00E0008600198016814
:1002F000086820F0010008600198C16B026C0120C1
:1003000090404860FFE70199012081F82100FFE754
:100310000199002081F82000FFE79DF803008DF887
:100320000B00FFE79DF80B0003B0704780B588B065
:10033000079000208DF81B00079890F821000228F4
:1003400007D0FFE707990420886301208DF81B0080
:1003500076E007980168086820F00E0008600798AA
:100360000168086820F0010008600798006808210B
:10037000C4F20201884203D1FFE70120059047E063
:10038000079800681C21C4F20201884203D1FFE7EC
:100390001020049039E0079800683021C4F202016F
:1003A000884204D1FFE74FF4807003902AE0079859
:1003B00000684421C4F20201884204D1FFE74FF4EF
:1003C000805002901BE0079800685821C4F2020197
:1003D000884204D1FFE74FF4803001900CE0079889
:1003E00001686C22C4F202024FF08070914208BF93
:1003F0004FF480100190FFE701980290FFE7029808
:100400000390FFE703980490FFE704980590FFE747
:1004100005980421C4F2020108600799012081F8BF
:100420002100FFE70799002081F82000FFE70798E7
:10043000406B20B1FFE70798416B8847FFE7FFE774
:100440009DF81B0008B080BD90B00F900E91002069
:100450000D900990FFE70E9800680D99C84000289C
:1004600000F07F81FFE70D99012088400C900E98E5
:1004700000680C9908400B900B980C99884240F04A
:100480006C81FFE70E9840680590002851D0FFE787
:10049000059801283AD0FFE7059802283FD0FFE7EA
:1004A000059803285FD0FFE70598112832D0FFE7B1
:1004B0000598122838D0FFE705980021C1F21101F4
:1004C000884236D0FFE705980021C1F21201884228
:1004D0002FD0FFE705980021C1F22101884228D0E2
:1004E000FFE705980021C1F22201884221D0FFE7F1
:1004F00005980021C1F2310188421AD0FFE7059822
:100500000021C1F23201884213D02FE00E98C0685A
:1005100009902CE00E98C0680430099027E00E98EE
:10052000C0680830099022E00E98C0680C3009902D
:100530001DE00E98806818B9FFE70420099011E0CB
:100540000E988068012806D1FFE7082009900C98D2
:100550000F99086105E0082009900C980F994861EF
:10056000FFE7FFE703E00020099000E0FFE70B98BA
:10057000FF2803D8FFE70F98049003E00F9804309A
:100580000490FFE7049808900B98FF2804D8FFE731
:100590000D988000039006E00D996FF01F0000EBAE
:1005A00081000390FFE70398079008980068079A76
:1005B0000F219140884309999140084308990860A8
:1005C0000E98C079C006002840F1C680FFE7FFE71B
:1005D00041F21800C4F20200016841F0010101601B
:1005E000006800F0010006900698FFE70D9820F0E3
:1005F00003000821C4F2010140580A900D9800F050
:10060000030081000F2000FA01F10A9888430A9044
:100610000F9840F60001C4F20101884203D1FFE7C0
:100620000020029026E00F9840F60041C4F201013C
:10063000884203D1FFE70120019018E00F9841F2B2
:100640000001C4F20101884203D1FFE702200090BB
:100650000AE00F9941F20042C4F2010204209142E3
:1006600008BF03200090FFE700980190FFE7019882
:100670000290FFE702980D9901F00301890000FA4A
:1006800001F10A9808430A900A980D9921F0030194
:100690000822C4F2010288500E988079C006002812
:1006A00009D5FFE70B9A40F20841C4F2010108683E
:1006B0001043086008E00B9A40F20841C4F20101BF
:1006C000086890430860FFE70E988079800600284C
:1006D00009D5FFE70B9A40F20C41C4F2010108680A
:1006E0001043086008E00B9A40F20C41C4F201018B
:1006F000086890430860FFE70E988079800700281B
:1007000009D5FFE70B9A40F20441C4F201010868E1
:100710001043086008E00B9A40F20441C4F2010162
:10072000086890430860FFE70E988079C00748B1D9
:10073000FFE70B9A40F20041C4F201010868104340
:10074000086008E00B9A40F20041C4F20101086819
:1007500090430860FFE7FFE7FFE70D9801300D9039
:1007600079E610B07047000082B00190ADF8021039
:100770008DF801209DF8010028B1FFE7BDF80200C7
:100780000199086105E0BDF80200000401990861C3
:10079000FFE702B07047000040F29010C2F2000084
:1007A0000068704740F20C00C2F20000027840F28C
:1007B0009011C2F200010868104408607047000000
:1007C00080B542F20001C4F20201086840F0100056
:1007D0000860032000F096F80F2000F005F800F004
:1007E0003BF8002080BD000080B582B0009040F250
:1007F0000000C2F20000006840F20C01C2F20001E9
:100800000A784FF47A71B1FBF2F1B0FBF1F000F02D
:1008100073FD20B1FFE701208DF8070018E0009874
:100820000F280DD8FFE700994FF0FF30002200F0AD
:100830004FF8009840F21001C2F20001086003E096
:1008400001208DF8070003E000208DF80700FFE786
:100850009DF8070002B080BD83B0FFE741F21800A9
:10086000C4F20200016841F001010160006800F07B
:10087000010002900298FFE7FFE741F21C00C4F27A
:100880000200016841F080510160006800F0805072
:1008900001900198FFE7FFE70421C4F20101086815
:1008A0000090009820F0E0600090009840F0007008
:1008B000009000980860FFE703B0704780B582B0F1
:1008C0008DF807009DF9070002F0D6FC02B080BD4C
:1008D00080B586B08DF81700049103920020029035
:1008E00002F0E2FC02909DF9170001900298049931
:1008F000039A01F0C3FE0146019802F0DDFC06B048
:1009000080BD000080B582B00190019802F0F6FC35
:1009100002B080BD80B584B002900191029820B9E8
:10092000FFE701208DF80F001BE1019842F2000162
:10093000C4F20201096801F00701884216D9FFE7F5
:1009400042F20000C4F20200016821F00701019A9E
:1009500011430160006800F007000199884204D04B
:10096000FFE701208DF80F00FBE0FFE70298007819
:10097000800700282AD5FFE7029800784007002862
:1009800009D5FFE741F20401C4F20201086840F40E
:10099000E0600860FFE7029800780007002809D5AA
:1009A000FFE741F20401C4F20201086840F460501C
:1009B0000860FFE741F20401C4F20201086820F078
:1009C000F000029A926810430860FFE702980078EE
:1009D000C007002860D0FFE70298406801280ED1C8
:1009E000FFE741F20000C4F2020000688003002823
:1009F00004D4FFE701208DF80F00B2E021E0029857
:100A0000406802280ED1FFE741F20000C4F2020064
:100A100000688001002804D4FFE701208DF80F0052
:100A20009FE00DE041F20000C4F202000068800780
:100A3000002804D4FFE701208DF80F0091E0FFE7C4
:100A4000FFE741F20401C4F20201086820F003004C
:100A5000029A526810430860FFF79EFE0090FFE77D
:100A600041F20400C4F20200006800F00C00029998
:100A70004968B0EB810F0ED0FFE7FFF78DFE0099BC
:100A8000401A41F28931884204D3FFE703208DF8F0
:100A90000F0066E0E4E7FFE7019842F20001C4F2CC
:100AA0000201096801F00701884216D2FFE742F20D
:100AB0000000C4F20200016821F00701019A11430D
:100AC0000160006800F007000199884204D0FFE748
:100AD00001208DF80F0044E0FFE7029800784007FE
:100AE00000280CD5FFE741F20401C4F202010868B6
:100AF00020F4E060029AD26810430860FFE7029891
:100B00000078000700280DD5FFE741F20401C4F288
:100B10000201086820F46050029A126940EAC2009B
:100B20000860FFE700F04CF841F20401C4F2020152
:100B30000968C9B20A0943F66601C0F60001895C7A
:100B4000C84040F20001C2F20001086040F210000B
:100B5000C2F200000068FFF747FE00208DF80F008A
:100B6000FFE79DF80F0004B080BD000040F20000D8
:100B7000C2F200000068704780B5FFF7F7FF41F24E
:100B80000401C4F202010968C1F3022243F67601AE
:100B9000C0F60001895CC84080BD000080B5FFF749
:100BA000E5FF41F20401C4F202010968C1F3C22267
:100BB00043F67601C0F60001895CC84080BD0000A4
:100BC00086B000200590049003900290019041F2BD
:100BD0000400C4F2020000680590059800F00C00C3
:100BE0000146009100283FD0FFE70098042804D078
:100BF000FFE70098082806D037E041F20020C0F255
:100C00007A00019037E00598C0F3834143F67E00F7
:100C1000C0F60000405C02909DF81600C007C0B10D
:100C2000FFE741F20400C4F202000068C0F3404153
:100C300043F68E00C0F60000405C0490029841F23A
:100C40000021C0F27A0148430499B0FBF1F003900F
:100C500007E0029840F60011C0F23D0148430390BE
:100C6000FFE70398019006E0FFE741F20020C0F2A1
:100C70007A000190FFE7019806B0704780B586B012
:100C80000490049820B9FFE701208DF817002EE3A7
:100C900004980078C007002800F0AE80FFE741F21A
:100CA0000400C4F20200006800F00C00042813D015
:100CB000FFE741F20400C4F20200006800F00C00FB
:100CC00008281BD1FFE741F20400C4F202000068CB
:100CD000C003002812D5FFE741F20000C4F2020071
:100CE00000688003002808D5FFE70498406820B911
:100CF000FFE701208DF81700F9E27CE0FFE7049898
:100D00004068B0F5803F09D1FFE741F20001C4F22D
:100D10000201086840F48030086032E004984068BE
:100D200068B9FFE741F20001C4F20201086820F44B
:100D300080300860086820F48020086020E0049873
:100D40004068B0F5A02F0DD1FFE741F20001C4F2D9
:100D50000201086840F480200860086840F4803090
:100D600008600CE041F20001C4F20201086820F4BE
:100D700080300860086820F480200860FFE7FFE703
:100D8000FFE7FFE704984068D0B1FFE7FFF704FDF5
:100D90000390FFE741F20000C4F202000068800304
:100DA00000280CD4FFE7FFF7F7FC0399401A6528E9
:100DB00004D3FFE703208DF8170098E2EAE719E073
:100DC000FFF7EAFC0390FFE741F20000C4F20200E3
:100DD0000068800300280CD5FFE7FFF7DDFC0399CE
:100DE000401A652804D3FFE703208DF817007EE240
:100DF000EAE7FFE7FFE7FFE70498007880070028AD
:100E000040F18D80FFE741F20400C4F20200006867
:100E100010F00C0F13D0FFE741F20400C4F20200FF
:100E2000006800F00C00082829D1FFE741F2040017
:100E3000C4F202000068C003002820D4FFE741F29A
:100E40000000C4F2020000688007002809D5FFE70F
:100E500004980069012804D0FFE701208DF81700ED
:100E600045E241F20001C4F20201086820F0F800F6
:100E7000049A526940EAC2000860FFE74EE0049815
:100E8000006958B3FFE70021C4F242210120086045
:100E9000FFF782FC0390FFE741F20000C4F202007A
:100EA0000068800700280CD4FFE7FFF775FC039962
:100EB000401A032804D3FFE703208DF8170016E239
:100EC000EAE741F20001C4F20201086820F0F800EC
:100ED000049A526940EAC20008601EE00021C4F290
:100EE000422100200860FFF757FC0390FFE741F222
:100EF0000000C4F202000068800700280CD5FFE75C
:100F0000FFF74AFC0399401A032804D3FFE70320A4
:100F10008DF81700EBE1EAE7FFE7FFE7FFE704984A
:100F200000780007002848D5FFE70498806918B3C7
:100F3000FFE740F28041C4F2422101200860FFF740
:100F40002BFC0390FFE741F22400C4F2020000688A
:100F5000800700280CD4FFE7FFF71EFC0399401A16
:100F6000032804D3FFE703208DF81700BFE1EAE769
:100F7000012001F0BBFB1FE040F28041C4F242219E
:100F800000200860FFF708FC0390FFE741F224000F
:100F9000C4F202000068800700280CD5FFE7FFF7C5
:100FA000FBFB0399401A032804D3FFE703208DF8C5
:100FB00017009CE1EAE7FFE7FFE7049800784007A5
:100FC000002840F1D880FFE700208DF8070041F2AB
:100FD0001C00C4F202000068C000002813D4FFE720
:100FE000FFE741F21C00C4F20200016841F08051A9
:100FF0000160006800F0805000900098FFE7012039
:101000008DF80700FFE747F20000C4F20000006817
:10101000C005002822D4FFE747F20001C4F2000116
:10102000086840F480700860FFF7B6FB0390FFE7A4
:1010300047F20000C4F200000068C00500280CD48C
:10104000FFE7FFF7A9FB0399401A652804D3FFE7E0
:1010500003208DF817004AE1EAE7FFE7FFE704986D
:10106000C068012809D1FFE741F22001C4F2020162
:10107000086840F00100086031E00498C06868B971
:10108000FFE741F22001C4F20201086820F00100EC
:101090000860086820F0040008601FE00498C06839
:1010A00005280DD1FFE741F22001C4F202010868D2
:1010B00040F004000860086840F0010008600CE09F
:1010C00041F22001C4F20201086820F0010008602A
:1010D000086820F004000860FFE7FFE7FFE7FFE78C
:1010E0000498C068E0B1FFE7FFF756FB0390FFE705
:1010F00041F22000C4F202000068800700280ED4EC
:10110000FFE7FFF749FB0399401A41F28931884212
:1011100004D3FFE703208DF81700E8E0E8E71BE0C1
:10112000FFF73AFB0390FFE741F22000C4F2020010
:101130000068800700280ED5FFE7FFF72DFB039915
:10114000401A41F28931884204D3FFE703208DF829
:101150001700CCE0E8E7FFE79DF80700012809D178
:10116000FFE741F21C01C4F20201086820F0805040
:101170000860FFE7FFE70498C069002800F0B3802B
:10118000FFE741F20400C4F20200006800F00C0026
:10119000082800F08280FFE70498C06902285CD12B
:1011A000FFE76021C4F2422100200860FFF7F4FA53
:1011B0000390FFE741F20000C4F2020000688001E2
:1011C00000280CD5FFE7FFF7E7FA0399401A032838
:1011D00004D3FFE703208DF8170088E0EAE70498BE
:1011E000006AB0F5803F0CD1FFE741F20401C4F280
:1011F0000201086820F40030049A926810430860E5
:10120000FFE741F20401C4F20201086820F47410FF
:10121000049B1A6A5B6A1A43104308606021C4F297
:10122000422101200860FFF7B7FA0390FFE741F27F
:101230000000C4F202000068800100280CD4FFE71F
:10124000FFF7AAFA0399401A032804D3FFE7032003
:101250008DF817004BE0EAE71EE06021C4F242215E
:1012600000200860FFF798FA0390FFE741F20000C2
:10127000C4F202000068800100280CD5FFE7FFF7E8
:101280008BFA0399401A032804D3FFE703208DF853
:1012900017002CE0EAE7FFE724E00498C069012882
:1012A00004D1FFE701208DF8170020E041F204008F
:1012B000C4F2020000680290029800F480300499A1
:1012C000096A884208D1FFE7029800F47010049977
:1012D000496A884204D0FFE701208DF8170006E034
:1012E000FFE7FFE7FFE700208DF81700FFE79DF815
:1012F000170006B080BD000080B582B00190019853
:1013000001F086FA02B080BD84B002900191002005
:101310000090FFE7029890F83C00012804D1FFE715
:1013200002208DF80F0044E00299012081F83C0072
:10133000FFE7FFE7009820F0FF000199C968084324
:101340000090009820F4407001998968084300904B
:10135000009820F480600199496808430090009843
:1013600020F400600199096808430090009820F477
:1013700080500199096908430090009820F40050BA
:101380000199496908430090009820F48040019930
:10139000C969084300900098029909684864FFE70A
:1013A0000299002081F83C00FFE700208DF80F0033
:1013B000FFE79DF80F0004B07047000085B0039070
:1013C0000291FFE7039890F83C00012804D1FFE761
:1013D00002208DF813005BE00399012081F83C00A6
:1013E000FFE7FFE70399022081F83D0003980068BA
:1013F000406801900398006880680090019820F090
:1014000070000190029801680198084301900198CA
:101410000399096848600398006842F60041C4F2E5
:101420000101884218D0FFE703980068B0F1804FAF
:1014300012D0FFE70398006840F20041C4F20001B7
:10144000884209D0FFE70398006840F60001C4F223
:10145000000188420ED1FFE7009820F08000009044
:101460000298416800980843009000980399096821
:101470008860FFE70399012081F83D00FFE70399A9
:10148000002081F83C00FFE700208DF81300FFE703
:101490009DF8130005B0704780B582B000900098A9
:1014A00020B9FFE701208DF807003FE0009890F891
:1014B0003D0040B9FFE70099002081F83C0000980A
:1014C00000F038F8FFE70099022081F83D0000990C
:1014D00051F8040B01F002FA0099012081F846004E
:1014E000FFE70099012081F83E00009981F83F0054
:1014F000009981F84000009981F84100FFE7FFE77B
:101500000099012081F84200009981F84300009978
:1015100081F84400009981F84500FFE70099012017
:1015200081F83D0000208DF80700FFE79DF80700D7
:1015300002B080BD83B002900298006842F600417C
:10154000C4F20101884210D1FFE7FFE741F2180021
:10155000C4F20200016841F400610160006800F417
:10156000006001900198FFE719E00298006840F2DE
:101570000041C4F20001884210D1FFE7FFE741F2C9
:101580001C00C4F20200016841F002010160006821
:1015900000F0020000900098FFE7FFE7FFE703B0CC
:1015A0007047000080B586B00490039100208DF84C
:1015B0000B00FFE7049890F83C00012804D1FFE7F6
:1015C00002208DF81700ABE00499012081F83C005F
:1015D000FFE7FFE70499022081F83D0004980068C6
:1015E00080680190019820F077000190019820F424
:1015F0007F40019001980499096888600398006809
:101600000090002872D0FFE7009810286ED0FFE706
:10161000009820286AD0FFE70098302866D0FFE7BE
:101620000098402855D0FFE70098502837D0FFE7B2
:101630000098602840D0FFE7009870280BD0FFE7A3
:101640000098B0F5805F05D0FFE70098B0F5005F27
:1016500016D052E055E004980068039B5A689968D8
:10166000DB6801F0CFF90498006880680190019868
:1016700040F077000190019804990968886040E083
:1016800004980068039B5A689968DB6801F0BAF90E
:1016900004980168886840F48040886031E00498CC
:1016A0000068039A5168D26801F068FB04980068EA
:1016B000502101F0C1F924E004980068039A5168B0
:1016C000D26801F083FB04980068602101F0B4F94E
:1016D00017E004980068039A5168D26801F04EFB45
:1016E00004980068402101F0A7F90AE00498006816
:1016F0000399096801F0A0F903E001208DF80B00BF
:10170000FFE70499012081F83D00FFE704990020DC
:1017100081F83C00FFE79DF80B008DF81700FFE70C
:101720009DF8170006B080BD80B588B007900020F6
:1017300006900590049003900798006842F60041D7
:10174000C4F2010188421DD1FFE7FFE741F2180012
:10175000C4F20200016841F004010160006800F079
:10176000040002900298FFE74FF40060039002200B
:101770000490069040F60000C4F2010003A9FEF7B1
:1017800063FE25E00798006840F20041C4F20001C2
:1017900088421CD1FFE7FFE741F21800C4F20200C3
:1017A000016841F004010160006800F0040001904C
:1017B0000198FFE7C020039002200490069040F6B5
:1017C0000000C4F2010003A9FEF73EFEFFE7FFE7B9
:1017D00008B080BD80B586B00490039102920020CD
:1017E0008DF80700FFE7049890F83C00012804D129
:1017F000FFE702208DF8170089E00499012081F8A5
:101800003C00FFE7FFE7029800900C2800F2708090
:101810000099DFE801F0076D6D6D206D6D6D3A6D1B
:101820006D6D530004980068039901F01BF904984A
:101830000168886940F00800886104980168886937
:1018400020F004008861039802690498016888699F
:101850001043886150E004980068039901F06AF928
:1018600004980168886940F4006088610498016800
:10187000886920F48060886103980269049801688F
:10188000886940EA0220886136E00498006803997C
:1018900001F0BCF904980168C86940F00800C8610B
:1018A00004980168C86920F00400C86103980269BF
:1018B00004980168C8691043C8611DE00498006875
:1018C000039901F00FFA04980168C86940F40060B8
:1018D000C86104980168C86920F48060C8610398F1
:1018E000026904980168C86940EA0220C86103E0FF
:1018F00001208DF80700FFE7FFE70499002081F839
:101900003C00FFE79DF807008DF81700FFE79DF802
:10191000170006B080BD000080B582B0009000982E
:1019200020B9FFE701208DF807003FE0009890F80C
:101930003D0040B9FFE70099002081F83C00009885
:1019400000F038F8FFE70099022081F83D00009987
:1019500051F8040B00F0C2FF0099012081F8460005
:10196000FFE70099012081F83E00009981F83F00CF
:10197000009981F84000009981F84100FFE7FFE7F6
:101980000099012081F84200009981F843000099F4
:1019900081F84400009981F84500FFE70099012093
:1019A00081F83D0000208DF80700FFE79DF8070053
:1019B00002B080BD81B0009001B0704780B58AB0A0
:1019C00008900791079828B9FFE7089890F83E001B
:1019D00005901CE00798042805D1FFE7089890F8C7
:1019E0003F00049010E00798082805D1FFE7089809
:1019F00090F84000039004E0089890F841000390AC
:101A0000FFE703980490FFE704980590FFE7059827
:101A1000012804D0FFE701208DF827007AE007981D
:101A200028B9FFE70899022081F83E001EE00798D8
:101A3000042806D1FFE70899022081F83F000290B0
:101A400012E00798082806D1FFE70899022081F8DC
:101A50004000019005E00899022081F841000190C2
:101A6000FFE701980290FFE70298FFE708980068F7
:101A70000799012200F0AAFF0898006842F6004189
:101A8000C4F20101884207D1FFE708980168486C59
:101A900040F400404864FFE70898006842F60041BF
:101AA000C4F20101884218D0FFE708980068B0F13D
:101AB000804F12D0FFE70898006840F20041C4F25E
:101AC0000001884209D0FFE70898006840F600014D
:101AD000C4F20001884212D1FFE7089800688068CC
:101AE00000F0070006900698062807D0FFE7089840
:101AF0000168086840F001000860FFE706E0089808
:101B00000168086840F001000860FFE700208DF8D8
:101B10002700FFE79DF827000AB080BD82B0019042
:101B2000ADF8021002B0704781B0009001B070476C
:101B300080B592B0119011980068006810901198CB
:101B40000068C0680F901198006840690E900020EE
:101B50000D900C90109800F00F000D900D9888B922
:101B6000FFE79DF84000800600280AD5FFE79DF8B2
:101B70003C008006002804D5FFE7119801F0E2F947
:101B8000E9E1FFE70D98002800F0C280FFE79DF82B
:101B90003800C00738B9FFE7BDF83C0010F4907F6B
:101BA00000F0B680FFE79DF84000C00758B1FFE79E
:101BB0009DF83D00C00730B1FFE71199486C40F037
:101BC00001004864FFE79DF84000400700280BD55E
:101BD000FFE79DF83800C00730B1FFE71199486C66
:101BE00040F002004864FFE79DF8400080070028AD
:101BF0000BD5FFE79DF83800C00730B1FFE711991A
:101C0000486C40F004004864FFE79DF8400000077E
:101C1000002811D5FFE79DF83C008006002805D478
:101C2000FFE79DF83800C00730B1FFE71199486C15
:101C300040F008004864FFE71198406C002866D027
:101C4000FFE79DF84000800600280AD5FFE79DF8D1
:101C50003C008006002804D5FFE7119801F072F9D6
:101C6000FFE7119800684069C0F380100C9011984C
:101C7000406C0007002804D4FFE70C9800283ED0F1
:101C8000FFE7119801F000F91198006840694006DB
:101C900000282FD5FFE7FFE7FFE71198006850E81D
:101CA000050F20F040000B90FFE70B991198026898
:101CB00042E805100028F0D1FFE7FFE71198C06B5C
:101CC00098B1FFE71198C16B42F66960C0F6000059
:101CD00048631198C06BFEF729FB28B1FFE7119804
:101CE000C06B416B8847FFE703E01198FFF71CFFCB
:101CF000FFE703E01198FFF717FFFFE706E01198F1
:101D0000FFF712FF119900204864FFE7FFE722E187
:101D10001198006B012840F0FE80FFE79DF840001D
:101D2000C006002840F1F780FFE79DF83C00C006A0
:101D3000002840F1F080FFE7FFE700200A901198AB
:101D4000006800680A901198006840680A900A9834
:101D5000FFE71198006840694006002840F1818043
:101D6000FFE71198C06B00684068ADF82600BDF829
:101D70002600002874D0FFE7BDF826001199898D50
:101D800088426DDAFFE7BDF826001199C8851198E1
:101D9000C06B8069202858D0FFE7FFE7FFE7119864
:101DA000006850E8030F20F480700890FFE708995E
:101DB0001198026842E803100028F0D1FFE7FFE71E
:101DC000FFE7FFE71198006850E8050F20F00100D9
:101DD0000790FFE707991198026842E8051000286C
:101DE000F0D1FFE7FFE7FFE7FFE71198006850E851
:101DF000050F20F040000690FFE706991198026851
:101E000042E805100028F0D1FFE7FFE711992020F4
:101E100081F84200119900200863FFE7FFE711985D
:101E2000006850E8030F20F010000590FFE70599C7
:101E30001198026842E803100028F0D1FFE7FFE79D
:101E40001198C06BFEF734FAFFE71199022048633E
:101E50001198818DC28D891A89B2FFF75FFEFFE765
:101E600079E01199888DC98D401AADF8120011984A
:101E7000C08D00284ED0FFE7BDF81200002849D0E1
:101E8000FFE7FFE7FFE71198006850E8030F20F431
:101E900090700390FFE703991198026842E80310DD
:101EA0000028F0D1FFE7FFE7FFE7FFE711980068A0
:101EB00050E8050F20F001000290FFE70299119809
:101EC000026842E805100028F0D1FFE7FFE711990A
:101ED000202081F84200119900200863FFE7FFE706
:101EE0001198006850E8030F20F010000190FFE700
:101EF00001991198026842E803100028F0D1FFE729
:101F0000FFE71199022048631198BDF81210FFF7FE
:101F100005FEFFE71FE09DF84000000600280AD5F7
:101F2000FFE79DF83C000006002804D5FFE7119864
:101F300001F04EF90FE09DF84000400600280AD558
:101F4000FFE79DF83C004006002804D5FFE7119804
:101F500000F0E4FFFFE712B080BD000080B582B062
:101F60000090009820B9FFE701208DF8070040E0BD
:101F70000098806908B1FFE700E0FFE7009890F85B
:101F8000410040B9FFE70099002081F84000009827
:101F900000F034F8FFE70099242081F84100009810
:101FA0000168C86820F40050C860009801F080F80B
:101FB00000980168086920F4904008610098016861
:101FC000486920F02A00486100980168C86840F418
:101FD0000050C860009900204864009A202182F8CF
:101FE0004110009A82F84210009948638DF807006A
:101FF000FFE79DF8070002B080BD000080B58CB0FF
:102000000B9000200A900990089007900B980068A8
:1020100043F60001C4F20101884251D1FFE7FFE716
:1020200041F21800C4F20200016841F480410160ED
:10203000006800F4804006900698FFE7FFE741F251
:102040001800C4F20200016841F008010160006854
:1020500000F0080005900598FFE740200790022057
:10206000089003200A9040F60040C4F2010002905C
:1020700007A90391FEF7E8F90298039980220792D5
:10208000002208920992FEF7DFF9FFE70421C4F26B
:10209000010108680490049840F0E06004900498FE
:1020A00040F00400049004980860FFE725200190A8
:1020B00000221146FEF70CFC0198FEF7FFFBFFE73C
:1020C0000CB080BD80B584B002900191ADF80220C3
:1020D000029890F84200202817D1FFE7019820B11C
:1020E000FFE7BDF8020020B9FFE701208DF80F00DF
:1020F0000FE002990020086302980199BDF80220C0
:1021000001F034F88DF80F0003E002208DF80F0085
:10211000FFE79DF80F0004B080BD000080B582B0DD
:102120000190019840F24411C2F2000188420CD1A2
:10213000FFE740F24410C2F2000040F29001C2F208
:1021400000010B22FFF7BEFFFFE702B080BD0000D9
:1021500081B0009001B07047FFE7FEE780B58AB01C
:1021600069464FF48050886040F60043C4F2010392
:102170004B604FF40050086040F27800C2F200005B
:10218000069040F2B401C2F200010C2200F0CCF93A
:1021900040F2A800C2F20000079040F2FC01C2F237
:1021A000000104910022059200F0C4FA049940F263
:1021B0009C00C2F200000890042200F0BBFA40F23A
:1021C0004410C2F2000040F29001C2F200010B2262
:1021D000FFF778FF0599069800F0D2F907980021DB
:1021E000C4F24821099100F0BBFA0898099900F05F
:1021F000B7FA0AB080BD000080B590B000200F9003
:102200000E900D900C90FFE741F21800C4F202000E
:10221000016841F020010160006800F020000B908F
:102220000B98FFE7FFE741F21800C4F202000168D3
:1022300041F004010160006800F004000A900A986F
:10224000FFE7FFE741F21800C4F20200016841F025
:1022500008010160006800F0080009900998FFE794
:1022600040F60000C4F201000290302101910122E9
:102270000392FEF779FA40F60040C4F2010006909E
:102280004FF44051089100220492FEF76DFA019B31
:102290000298039A04990C930D920E9102210591D4
:1022A0000F910CA90791FEF7CFF8DDF80CC0049B45
:1022B000059A06980799DDF820E0CDF830E0CDF8D2
:1022C00034C00E930F92FEF7BFF810B080BD00002F
:1022D00080B598B000210191179116911591149134
:1022E00013911291119110910F910E910D910C91EA
:1022F0000B910A910991089107910691059104911A
:10230000039140F2B400C2F20000029042F6004293
:10231000C4F20102026047224260816040F2E7326B
:10232000C2600161416180218161FFF7B5F818B198
:10233000FFE7FDF7B5FFFFE74FF48050149040F240
:10234000B400C2F2000014A9FFF72CF918B1FFE79E
:10235000FDF7A6FFFFE740F2B400C2F20000FFF76E
:10236000DBFA18B1FFE7FDF79BFFFFE700201290B3
:10237000139040F2B400C2F2000012A9FFF71EF859
:1023800018B1FFE7FDF78CFFFFE760200B900020FE
:102390000C900D900F901090119040F2B400C2F28A
:1023A00000000BA90C22FFF715FA18B1FFE7FDF7A3
:1023B00077FFFFE7002003900490059006900790B8
:1023C0004FF4005108910A9040F2B400C2F20000AC
:1023D00003A9FEF799FF18B1FFE7FDF761FFFFE7DB
:1023E00040F2B400C2F20000FFF79EF918B080BDC1
:1023F00080B58EB0002100910D910C910B910A9146
:102400000991089107910691059104910391029118
:10241000019140F2FC00C2F2000040F20042C4F21E
:102420000002026040F29F524260816040F2E73257
:10243000C26001618161FFF72FF818B1FFE7FDF776
:102440002FFFFFE74FF480500A9040F2FC00C2F2E9
:1024500000000AA9FFF7A6F818B1FFE7FDF720FF73
:10246000FFE740F2FC00C2F20000FFF755FA18B196
:10247000FFE7FDF715FFFFE700200890099040F205
:10248000FC00C2F2000008A9FEF798FF18B1FFE7B0
:10249000FDF706FFFFE76020019000220292039201
:1024A000059240F2FC00C2F2000001A9FFF792F988
:1024B00018B1FFE7FDF7F4FEFFE740F2FC00C2F2BF
:1024C000000001A90422FFF785F918B1FFE7FDF725
:1024D000E7FEFFE740F2FC00C2F20000FFF724F93C
:1024E0000EB080BD80B582B040F24410C2F2000050
:1024F000019043F60001C4F2010101604FF4E131A3
:10250000416000218160C16001610C2242618161F2
:10251000C161FFF723FD18B1FFE7FDF7C1FEFFE73B
:1025200002B080BDFFE7FEE780B586B08C468646E8
:102530000A9809990899CDF814E0CDF810C00392D3
:102540000293ADF80610ADF80400049805990861EF
:10255000039805994861029805994860BDF80600FE
:1025600005998881099805998860BDF80400059946
:10257000C881059908694969FFF720FA06B080BD4E
:1025800080B588B00790ADF81A1007994868898916
:10259000BDF91A300022002BC8BF0122FEF7E4F873
:1025A00007998868C989BDF91A20D20FFEF7DCF8AF
:1025B0000798406998B9FFE7BDF91A0018B9FFE715
:1025C0000020059005E0BDF91A00FDF7FDFD05901E
:1025D000FFE7059807990969096848634AE0079881
:1025E0004069042814D1FFE7BDF91A0018B9FFE7C4
:1025F0000020049005E0BDF91A00FDF7E5FD049008
:10260000FFE70498079909690968886303902FE038
:1026100007984069082814D1FFE7BDF91A0018B9D6
:10262000FFE70020029005E0BDF91A00FDF7CCFDA0
:102630000290FFE70298079909690968C863019049
:1026400013E0BDF91A0018B9FFE70020009005E07B
:10265000BDF91A00FDF7B8FD0090FFE70098079953
:102660000969096808640190FFE701980390FFE792
:102670000398FFE708B080BDFFE7FEE788B007904A
:1026800006910592079800F0070004900498C0F1A5
:102690000700052803D3FFE70420019004E0049815
:1026A000C0F107000190FFE70198039004980430FF
:1026B000062803D8FFE70020009003E004980338C1
:1026C0000090FFE70098029006980399012202FA11
:1026D00001F101390840029B984005999A40013A5E
:1026E0001140084308B070477047000082B0019065
:1026F000019840F20001C2F200010968C90844F6DD
:10270000D352C1F26202A1FB022189094843009021
:10271000FFE700BFFFE70098411E00910028F8D1B5
:10272000FFE702B07047000080B500F079FB80BD84
:102730007047000080B584B0039002910192029826
:1027400003990860019803994860039908684968EB
:10275000FFF734F90398002100F002F804B080BDBF
:1027600080B586B005900491049805998860049816
:102770000021C4F2B42100F0F5FD0021C4F234318F
:1027800000F052FE0021C4F2C82100F02BFF00210E
:10279000C4F2C81100F0E6FD00F008FFADF80E002D
:1027A0000598406838B9FFE7BDF90E00059909683A
:1027B0000968486329E005984068042809D1FFE7C3
:1027C000BDF90E100846059A1268126891630290CE
:1027D00019E005984068082809D1FFE7BDF90E10F7
:1027E0000846059A12681268D163019008E0BDF9A5
:1027F0000E100846059A1268126811640190FFE7EE
:1028000001980290FFE70298FFE706B080BD000044
:1028100080B582B0009000980138B0F1807F03D37A
:10282000FFE70120019019E0009801384EF21401F1
:10283000CEF2000108604FF0FF300F2100F03CFDA8
:102840004EF21801CEF20001002008604EF2100294
:10285000CEF20002072111600190FFE7019802B05B
:1028600080BD000080B5FDF79DFF80BD80B590B0B4
:1028700006A800902821FDF7ABFC009800230593E3
:102880000493039302930193012206924FF4803143
:10289000079108930A9202220D920E914FF4E011D3
:1028A0000F91FEF7EBF918B1FFE7FDF7F9FCFFE731
:1028B0000F20019002210291002003904FF48062CA
:1028C0000492059001A8FEF725F818B1FFE7FDF77F
:1028D000E7FCFFE710B080BD7047000083B00290B6
:1028E0000191029800680090029842F60041C4F2FB
:1028F0000101884215D0FFE70298B0F1804F10D057
:10290000FFE7029840F20041C4F20001884208D07B
:10291000FFE7029840F60001C4F2000188420AD1A4
:10292000FFE7009820F0700000900198416800983F
:1029300008430090FFE7029842F60041C4F201010B
:10294000884215D0FFE70298B0F1804F10D0FFE722
:10295000029840F20041C4F20001884208D0FFE72B
:10296000029840F60001C4F2000188420AD1FFE754
:10297000009820F4407000900198C16800980843C6
:102980000090FFE7009820F0800001994969084312
:102990000090009802990860019880680299C862C6
:1029A0000198006802998862029842F60041C4F2D8
:1029B0000101884205D1FFE7019800690299086387
:1029C000FFE702990120486103B0704784B003908B
:1029D00002910192029800F01F01012088400090AE
:1029E000009A0399086A904308620198029901F0DD
:1029F0001F0100FA01F20399086A1043086204B04B
:102A00007047000085B004900391029201930498EE
:102A100080680090009820F47F400090039802990D
:102A2000019A41EA0221014300980843009000986E
:102A30000499886005B0704783B0029001910298B4
:102A400080680090009820F0700000900198009934
:102A5000084340F00700009000980299886003B096
:102A60007047000085B0049003910498006A0190BB
:102A70000499086A20F001000862049840680090F8
:102A8000049880690290029820F0700002900298E9
:102A900020F0030002900398016802980843029016
:102AA000019820F002000190039881680198084382
:102AB0000190049842F60041C4F2010188420ED10F
:102AC000FFE7019820F0080001900398C168019881
:102AD00008430190019820F004000190FFE704985A
:102AE00042F60041C4F20101884213D1FFE7009889
:102AF00020F480700090009820F4007000900398FB
:102B00004169009808430090039881690098084340
:102B10000090FFE700980499486002980499886142
:102B2000039840680499486301980499086205B0C5
:102B30007047000085B0049003910498006A0190EA
:102B40000499086A20F01000086204984068009018
:102B5000049880690290029820F4E0400290029864
:102B600020F44070029003980168029840EA012026
:102B70000290019820F0200001900398816801984C
:102B800040EA01100190049842F60041C4F20101AC
:102B900088420FD1FFE7019820F080000190039850
:102BA000C168019840EA01100190019820F04000AE
:102BB0000190FFE7049842F60041C4F20101884207
:102BC00015D1FFE7009820F480600090009820F471
:102BD0000060009003984169009840EA81000090ED
:102BE00003988169009840EA81000090FFE700980F
:102BF0000499486002980499886103984068049990
:102C0000886301980499086205B0704785B0049004
:102C100003910498006A01900499086A20F4807076
:102C200008620498406800900498C0690290029875
:102C300020F070000290029820F0030002900398A8
:102C40000168029808430290019820F400700190F6
:102C500003988168019840EA01200190049842F6A7
:102C60000041C4F2010188420FD1FFE7019820F42E
:102C7000006001900398C168019840EA012001902A
:102C8000019820F480600190FFE7049842F600412B
:102C9000C4F20101884215D1FFE7009820F480506A
:102CA0000090009820F4005000900398416900982B
:102CB00040EA0110009003988169009840EA0110F1
:102CC0000090FFE700980499486002980499C86151
:102CD000039840680499C86301980499086205B094
:102CE0007047000085B0049003910498006A019039
:102CF0000499086A20F480500862049840680090A3
:102D00000498C0690290029820F4E0400290029872
:102D100020F44070029003980168029840EA012074
:102D20000290019820F40050019003988168019866
:102D300040EA01300190049842F60041C4F20101DA
:102D400088420BD1FFE7009820F480400090039860
:102D50004169009840EA81100090FFE700980499CB
:102D6000486002980499C86103984068049908640F
:102D700001980499086205B07047000085B004907E
:102D8000039102920498006A00900499086A20F066
:102D900001000862049880690190019820F0F00019
:102DA00001900299019840EA01100190009820F0EA
:102DB0000A00009003990098084300900198049934
:102DC000886100980499086205B0704785B0049046
:102DD000039102920498006A00900499086A20F016
:102DE00010000862049880690190019820F47040F6
:102DF00001900299019840EA01300190009820F07A
:102E0000A00000900399009840EA011000900198FA
:102E10000499886100980499086205B07047000021
:102E200080B540F28C10C2F20000B0F9001040F200
:102E30007800C2F20000FFF7A3FB40F20800C2F2E4
:102E40000000016840F2A800C2F20000FFF788FC11
:102E500040F20400C2F20000016840F29C00C2F29D
:102E60000000FFF77DFC80BD80B582B00190019825
:102E7000406A009000990020C8850099C884009895
:102E8000FEF752FE02B080BD84B00390FFE7FFE77B
:102E90000398006850E8030F20F490700290FFE759
:102EA00002990398026842E803100028F0D1FFE776
:102EB000FFE7FFE7FFE70398006850E8050F20F001
:102EC00001000190FFE701990398026842E80510AC
:102ED0000028F0D1FFE7FFE70398006B012814D129
:102EE000FFE7FFE7FFE70398006850E8030F20F0D3
:102EF00010000090FFE700990398026842E8031071
:102F00000028F0D1FFE7FFE7FFE70399202081F8D1
:102F1000420003990020086304B0704780B582B076
:102F2000019001980168C86820F04000C8600199CC
:102F3000202081F841000198FFF70AF9002002B033
:102F400080BD000080B586B00490049890F84200DF
:102F5000222840F0A480FFE704988068B0F5805FE5
:102F600015D1FFE70498006988B9FFE700200390B6
:102F70000498806A02900498006840686FF35F20AC
:102F8000029908800499886A0230886225E00498D2
:102F9000806A03900020029004988068B0F5805FFA
:102FA00008D0FFE70498806850B9FFE704980069EB
:102FB00030B9FFE70498006840680399087007E09B
:102FC00004980068406800F07F0003990870FFE7EC
:102FD0000499886A01308862FFE70499C88D013836
:102FE000C8850004002856D1FFE704980168C86826
:102FF00020F02000C86004980168C86820F4807040
:10300000C86004980168486920F00100486104998B
:10301000202081F842000499002048630498006B46
:10302000012830D1FFE7049900200863FFE7FFE79C
:103030000498006850E8030F20F010000190FFE7AB
:1030400001990498026842E803100028F0D1FFE7D4
:10305000FFE7049800680068C00600280ED5FFE767
:10306000FFE7002000900498006800680090049832
:103070000068406800900098FFE7FFE70498818DA2
:10308000FEF74CFD03E00498FFF748F8FFE7002047
:103090008DF8170007E000208DF8170003E00220EC
:1030A0008DF81700FFE79DF8170006B080BD0000FF
:1030B00080B584B0039003980068006920F4405004
:1030C000039A1168D26810430861039988680A69F5
:1030D000496910430843029003980068C06841F2B0
:1030E0000C6188430299084303990968C8600398F2
:1030F0000068406920F44070039A11689269104397
:1031000048610398006843F60001C4F20101884257
:1031100004D1FFE7FDF742FD019003E0FDF72CFD30
:103120000190FFE7019819214843039A11685268FA
:103130009200B0FBF2FC48F21F52C5F2EB12ACFB5E
:1031400002304309642003FB10CC322000EB0C104A
:10315000A0FB0202F02000EA521000EB0310C2F3C1
:1031600043121044886004B080BD000083B0029018
:103170000191ADF80220019802998862BDF8020021
:1031800002998885BDF802000299C885029900203D
:1031900048640299222081F842000298006938B1FF
:1031A000FFE702980168C86840F48070C860FFE7D4
:1031B00002980168486940F001004861029801687E
:1031C000C86840F02000C860002003B070470000CD
:1031D00083B00190019890F8410021283AD1FFE78F
:1031E00001988068B0F5805F13D1FFE7019800690E
:1031F00078B9FFE70198006A0090009800886FF3A3
:103200005F200199096848600199086A02300862E4
:1032100008E0019A106A411C11620078019909685E
:103220004860FFE70199C88C0138C884000468B978
:10323000FFE701980168C86820F08000C860019825
:103240000168C86840F04000C860FFE700208DF8C2
:103250000B0003E002208DF80B00FFE79DF80B0048
:1032600003B0704780B540F24410C2F20000FEF790
:103270005FFC80BDFFE7FEE781B08DF803009DF99C
:10328000030000280ED4FFE79DF9031001F01F0290
:10329000012090404A094EF20011CEF2000141F89F
:1032A0002200FFE701B070474EF60C50CEF200004E
:1032B0000068C0F30220704782B08DF807000091CB
:1032C0009DF9070000280AD4FFE7009800019DF946
:1032D00007104EF20042CEF2000288540BE0009834
:1032E00000019DF8071001F00F014EF61452CEF2C6
:1032F00000028854FFE702B07047000083B00290DC
:10330000029800F0070000904EF60C51CEF200013A
:103310000868019001984FF6FF0210400190019853
:10332000009A40EA02200022C0F2FA5210430190B3
:103330000198086003B0704780B582B0002001900A
:10334000FDF73EFAFFF792FAFEF756FFFEF7C0FFD1
:10335000FFF7C8F8FFF74CF8FEF700FFFFE7FFF7AD
:10336000E3F9FCE790EA010F48BF81F0004100F16A
:103370000C82421A3CBF801A89184FEAD052A2EB45
:10338000D1534FF07F4C1CEA410F18BF9CEA026FEB
:1033900000F03B804FF0004C4CEA00204CEA012149
:1033A00021FA03FC10EB0C0C1ED202F1FF325FEA93
:1033B0001C2040EBC25038BF70471CF07F0F4FEA13
:1033C000400C18BFBCF17F4F38BF7047C3F12003DA
:1033D000994008BF20F00100BCF17F4F38BF704713
:1033E000A0F1C04000F0C5B94FEA3C00000A40EB34
:1033F000C25028BF1CF0FF0F4FEA400CE6D018BFA8
:10340000BCF17F4F38BF7047EAE79CEA026F05D0F6
:1034100010EA5C0F08BF00F00040704710B500F0E4
:1034200062F900BF64FBBE3E4FF47F0C1CEAD01271
:103430001EBF1CEAD11392EA0C0F93EA0C0F00F0A6
:10344000858090EA010F48BF42F4807240F4000C7E
:1034500041F400002CF07F4120F07F4000B5A2EB4A
:10346000030281420FF2081CACEB504E9EF800E0C4
:10347000C0F100004FEA4E0E00FB0EFC38BF4900C1
:103480004FEA2C1C0CFB0EF34FEACE1E0EEB635ED4
:103490004FEA112C0EFB0CFC4FEAC1214FEA1C53E2
:1034A00000FB031102F5FA024FEA112C0EFB0CFC93
:1034B0004FEA01314FEADC4C00FB0C1142EB224297
:1034C000C14228BF09184CEB03335DF804EB10EB45
:1034D000410143EBC250B2F57C0F38BF704729D58C
:1034E00012F0F00F1CBF00F1C04000F00040704728
:1034F000008182838485868788898B8C8D8E8F91CD
:103500009293959697999A9C9D9FA0A2A3A5A7A8F0
:10351000AAACAEB0B2B3B5B7B9BCBEC0C2C5C7C91C
:10352000CCCED1D4D7D9DCDFE2E6E9ECF0F3F7FA80
:10353000FE0000004FEA400C0CF1807CBCF17E4F95
:1035400028BF7047B0F1C04000F013B90CEAD113A6
:1035500090EA010F48BF42F48072624538BF63456C
:1035600007D213F47F0F16D080EA010000F000406C
:10357000704710B500F0B7F8097EFC3E00F005B8C2
:1035800080EA010000F00040704780EA010000F08E
:10359000004000F0EEB812F47F0F04BF02487047FD
:1035A00080EA010000F0E5B80000C07F41000B0E8A
:1035B000D3F19E0208D950F400034FEA032323FA03
:1035C00002F048BF4042704710B500F08CF800BFD1
:1035D00049922480002070476FF0004282EA200068
:1035E000704700004FF47F0C1CEAD0121EBF1CEA8B
:1035F000D11392EA0C0F93EA0C0F00F0478090EA87
:10360000010F48BF42F480724FF0004C4CEA00209A
:103610004CEA012102EB0302A0FB0113A2F5000218
:10362000002918BF43F001035B0028BF4FEA3303B2
:1036300042EB22425FEA132C4CEBC2502EBFBCEB94
:10364000436FB2F57C0F70474FEA036CBCF1004F3B
:1036500008BF20F00100B2F57C0F38BF70470BD5D2
:1036600082F0FF0212F5803FC8BF704700F1C040F2
:10367000D8BF00F00040704700F5000C5FEA4C0C2A
:1036800048BF7047B0F1C04000F073B80CEAD113E6
:1036900090EA010F48BF42F48072624538BF63452B
:1036A00004D280EA010000F00040704710B500F03D
:1036B0001AF800BF8900013E00F007B800F009B811
:1036C0005FEA410C5FEA1C6C08D080EA010000F060
:1036D00050B85FEA400C5FEA1C6CF6D14FF0004036
:1036E000A0F5800070470EF1020E2EF0030E5EF87A
:1036F000044B244204D44FEA4102B2F17F4F11D867
:103700004FEA4003B3F17F4F0CD80ED14FEAD07C83
:103710000CEB4C0C0CF1020CB2F17F4F08BF4CEBE0
:10372000D17C04E04FF0080C01E04FEAD17C0CEBB7
:103730004C0324FA03F404F00704B4F1040C06D299
:103740000EEB840CBDE810404CF0010C6047DFE844
:103750000CF0070802024FF00040A0F5800010BDF9
:103760000846420018BFD2F1807288BF00F00040C6
:1037700010BDFF2141EAD050C005704790EA010F0B
:1037800048BF81F000413FF5F4AD421A04D882F001
:103790000042A0EB020011444FEAD052A2EBD153F9
:1037A0004FF07F4C1CEA410F18BF9CEA026F4AD0D1
:1037B0004FF0004C4CEA00204CEA012121FA03FCB6
:1037C000B0EB0C0C0FD412F0FE0F36D05FEA4C00B9
:1037D0001DD5001240EBC25038BF70471CF03F0FA0
:1037E00018BF70470BE05FEA1C20A2F1010240EB1A
:1037F000C25038BF70471CF07F0F18BF7047C3F12D
:103800002003994014BF401E20F0010070474FEA8A
:103810001223800808BF7047B0FA80FCA2EB0C02AC
:10382000CCF1280C60FA0CF093EA122F04BF00EBE5
:10383000C25070474FEAC3707047130A5FEADC104A
:1038400008BF7047F6E79CEA026F04D010EA5C0FED
:1038500008BF0020704710B5FFF745FF40DFF63E78
:1038600081F00040704700000000000000000102ED
:103870000304060708090000000001020304020314
:103880000405060708090A0B0C0D0E0F10100102A3
:10389000B0380008000000201800000028010008CF
:1038A000C838000818000020800700004401000804
:1038B0000024F400000048420000484201000000DB
:0838C0001000000000000000F0
:04000005080000ED02
:00000001FF
